:020000040800F2
:1000000000280020790A00081D0A0008230A0008B9
:10001000290A00082F0A0008350A0008000000001D
:100020000000000000000000000000003B0A000883
:10003000470A000800000000530A00085F0A000891
:10004000C10A0008C10A0008C10A0008C10A000864
:10005000C10A0008C10A0008C10A0008C10A000854
:10006000C10A0008C10A0008C10A0008C10A000844
:10007000C10A0008C10A0008C10A0008C10A000834
:10008000C10A0008C10A0008C10A0008C10A000824
:10009000C10A0008C10A0008C10A0008C10A000814
:1000A000C10A0008C10A0008C10A0008C10A000804
:1000B000C10A0008C10A000800000000C10A0008C7
:1000C000C10A00080000000000000000C10A00088A
:1000D00000000000C10A0008C10A0008000000007A
:1000E000C10A0008C10A0008C10A00080000000097
:1000F0000000000000000000000000000000000000
:0C01000000000000000000005FF808F1A3
:10010C0010B5054C237833B9044B13B10448AFF345
:10011C0000800123237010BD0C00002000000000A3
:10012C001819000808B5034B1BB103490348AFF37A
:10013C00008008BD00000000100000201819000805
:10014C0080B582B000AF786001220121A24800F096
:10015C0097FF01220221A04800F092FF0122042106
:10016C009D4800F08DFF012208219B4800F088FF7C
:10017C0001221021984800F083FF0122202196488B
:10018C0000F07EFF01224021934800F079FF7B684C
:10019C00092B00F2168101A252F823F0D1010008BC
:1001AC000F02000825020008590200088D02000801
:1001BC00B7020008EB0200082903000849030008F5
:1001CC009103000800220121834800F059FF00220E
:1001DC000221814800F054FF002204217E4800F0E7
:1001EC004FFF002208217C4800F04AFF002210211A
:1001FC00794800F045FF00222021774800F040FFAD
:10020C00E5E000220221744800F03AFF00220421AC
:10021C00714800F035FFDAE0002201216E4800F051
:10022C002FFF002202216C4800F02AFF0022082137
:10023C00694800F025FF00221021674800F020FFDC
:10024C0000224021644800F01BFFC0E00022012185
:10025C00614800F015FF002202215F4800F010FFFA
:10026C00002204215C4800F00BFF002208215A48B0
:10027C0000F006FF00224021574800F001FFA6E0E5
:10028C0000220221544800F0FBFE002204215248B7
:10029C0000F0F6FE002220214F4800F0F1FE002273
:1002AC0040214D4800F0ECFE91E0002201214A482B
:1002BC0000F0E6FE00222021474800F0E1FE00227B
:1002CC004021454800F0DCFE00220421424800F0A9
:1002DC00D7FE00220821404800F0D2FE77E0002231
:1002EC0001213D4800F0CCFE002204213A4800F0E8
:1002FC00C7FE00220821384800F0C2FE002210215F
:10030C00354800F0BDFE00222021334800F0B8FE35
:10031C0000224021304800F0B3FE58E000220121B9
:10032C002D4800F0ADFE002202212B4800F0A8FE63
:10033C0000220421284800F0A3FE48E000220121FD
:10034C00254800F09DFE00220221234800F098FE73
:10035C0000220421204800F093FE002208211E48B0
:10036C0000F08EFE002210211B4800F089FE0022B6
:10037C002021194800F084FE00224021164800F08C
:10038C007FFE24E000220121134800F079FE0022B8
:10039C000221114800F074FE002204210E4800F0E6
:1003AC006FFE002208210C4800F06AFE002220217A
:1003BC00094800F065FE00224021074800F060FE6D
:1003CC0005E001220821044800F05AFE00BF00BFDE
:1003DC000837BD4680BD00BF000C014080B582B01F
:1003EC0000AF786001228021BA4800F049FE01225A
:1003FC004FF48071B74800F043FE01224FF40071B6
:10040C00B44800F03DFE01224FF48061B14800F089
:10041C0037FE01224FF40061AE4800F031FE01229C
:10042C004FF48051AB4800F02BFE01224FF40051E9
:10043C00A84800F025FE7B68092B00F23F8101A241
:10044C0052F823F079040008C1040008DB0400080A
:10045C00170500085305000885050008C1050008AC
:10046C00090600082D0600088106000800228021DC
:10047C00984800F005FE00224FF48071954800F07A
:10048C00FFFD00224FF40071924800F0F9FD0022AC
:10049C004FF480618F4800F0F3FD00224FF40061AF
:1004AC008C4800F0EDFD00224FF48051894800F09B
:1004BC00E7FD0AE100224FF48071864800F0E0FD70
:1004CC0000224FF40071834800F0DAFDFDE00022B9
:1004DC008021804800F0D4FD00224FF480717D48CB
:1004EC0000F0CEFD00224FF480617A4800F0C8FD88
:1004FC0000224FF40061774800F0C2FD00224FF457
:10050C000051744800F0BCFDDFE0002280217148EE
:10051C0000F0B6FD00224FF480716E4800F0B0FD83
:10052C0000224FF400716B4800F0AAFD00224FF43A
:10053C008061684800F0A4FD00224FF4005165482A
:10054C0000F09EFDC1E000224FF48071614800F084
:10055C0097FD00224FF400715E4800F091FD0022DF
:10056C004FF480515B4800F08BFD00224FF400519A
:10057C00584800F085FDA8E000228021554800F085
:10058C007FFD00224FF48051524800F079FD00228B
:10059C004FF400514F4800F073FD00224FF40071EE
:1005AC004C4800F06DFD00224FF48061494800F08A
:1005BC0067FD8AE000228021464800F061FD0022A0
:1005CC004FF40071434800F05BFD00224FF4806152
:1005DC00404800F055FD00224FF400613D4800F00A
:1005EC004FFD00224FF480513A4800F049FD0022A3
:1005FC004FF40051374800F043FD66E000228021A3
:10060C00344800F03DFD00224FF48071314800F079
:10061C0037FD00224FF400712E4800F031FD54E0FC
:10062C00002280212B4800F02BFD00224FF400719A
:10063C00284800F025FD00224FF48071254800F079
:10064C001FFD00224FF48061224800F019FD0022AA
:10065C004FF400611F4800F013FD00224FF480514D
:10066C001C4800F00DFD00224FF40051194800F019
:10067C0007FD2AE000228021164800F001FD00222F
:10068C004FF48071134800F0FBFC00224FF4007112
:10069C00104800F0F5FC00224FF480610D4800F08A
:1006AC00EFFC00224FF480510A4800F0E9FC0022D4
:1006BC004FF40051074800F0E3FC06E001224FF430
:1006CC000051044800F0DCFC00BF00BF0837BD46F9
:1006DC0080BD00BF000C014080B58AB000AF00F0B7
:1006EC00EBF900F0FDF800F0BFF80323FB600223E8
:1006FC00BB60FA68BB6813447B607B687B62FB68F9
:10070C003B620821574800F0D3FC0421554800F007
:10071C00CFFC1021534800F0CBFC2021514800F0B5
:10072C00C7FC0023FB6112E0786AFFF709FD386A09
:10073C00FFF754FE7B6A013B7B623B6A013B3B62E9
:10074C004FF47A7000F01AFAFB690133FB61FA6915
:10075C00FB689A42E8DB4021424800F0A9FC2021CA
:10076C00404800F0A5FCBB683B620023BB6112E073
:10077C00786AFFF7E5FC386AFFF730FE7B6A013BCD
:10078C007B623B6A013B3B624FF47A7000F0F6F9F6
:10079C00BB690133BB61BA69BB689A42E8DB0221D1
:1007AC00304800F085FC08212E4800F081FC202107
:1007BC002C4800F07DFC10212A4800F079FCFB68E5
:1007CC007B627B683B6200237B6112E0786AFFF7F7
:1007DC00B7FC386AFFF702FE7B6A013B7B623B6A1F
:1007EC00013B3B624FF47A7000F0C8F97B6901332E
:1007FC007B617A69FB689A42E8DB0821194800F0B2
:10080C0057FC0421174800F053FCBB687B620023A3
:10081C003B6112E0786AFFF793FC386AFFF7DEFD64
:10082C007B6A013B7B623B6A013B3B624FF47A7013
:10083C0000F0A4F93B6901333B613A69BB689A4209
:10084C00E8DB0221074800F033FC0821054800F0E2
:10085C002FFC2021034800F02BFC4021014800F024
:10086C0027FC4AE70008014080B590B000AF07F1C3
:10087C00180328220021184601F040F83B1D0022E5
:10088C001A605A609A60DA601A610223BB61012314
:10089C00BB621023FB6200237B6307F1180318462D
:1008AC0000F020FC0346002B01D000F079F80F2358
:1008BC007B600023BB600023FB6000233B610023B3
:1008CC007B613B1D0021184600F08CFE0346002B7B
:1008DC0001D000F065F800BF4037BD4680BD000078
:1008EC0080B588B000AF07F1100300221A605A607F
:1008FC009A60DA60274B9B69264A43F02003936188
:10090C00244B9B6903F02003FB60FB68214B9B6924
:10091C00204A43F0040393611E4B9B6903F00403CC
:10092C00BB60BB681B4B9B691A4A43F0080393617D
:10093C00184B9B6903F008037B607B6800227E21C7
:10094C00154800F09DFB002243F6FF71134800F0A0
:10095C0097FB7E233B6101237B610023BB61022358
:10096C00FB6107F1100319460B4800F00FFA43F630
:10097C00FF733B6101237B610023BB610223FB619D
:10098C0007F110031946054800F000FA00BF2037A4
:10099C00BD4680BD0010024000080140000C014023
:1009AC0080B400AF72B600BFFEE7000080B485B023
:1009BC0000AF154B9B69144A43F001039361124B32
:1009CC009B6903F00103BB60BB680F4BDB690E4AEC
:1009DC0043F08053D3610C4BDB6903F080537B6095
:1009EC007B680A4B5B68FB60FB6823F0E063FB6091
:1009FC00FB6843F08063FB60044AFB68536000BFF4
:100A0C001437BD4680BC7047001002400000014006
:100A1C0080B400AFFEE780B400AFFEE780B400AF57
:100A2C00FEE780B400AFFEE780B400AFFEE780B411
:100A3C0000AF00BFBD4680BC704780B400AF00BFA4
:100A4C00BD4680BC704780B400AF00BFBD4680BCC3
:100A5C00704780B500AF00F075F800BF80BD80B462
:100A6C0000AF00BFBD4680BC704700000C480D496C
:100A7C000D4A002302E0D458C4500433C4188C42ED
:100A8C00F9D30A4A0A4C002301E013600432A24253
:100A9C00FBD3FFF7E4FF00F00DFFFFF71DFE7047DF
:100AAC00000000200C000020581900080C00002049
:100ABC002C000020FEE7000080B500AF084B1B683F
:100ACC00074A43F010031360032000F02BF90020B9
:100ADC0000F008F8FFF76AFF0023184680BD00BF3E
:100AEC000020024080B582B000AF7860124B1A68CB
:100AFC00124B1B7819464FF47A73B3FBF1F3B2FB2C
:100B0C00F3F3184600F035F90346002B01D001230E
:100B1C000EE07B680F2B0AD8002279684FF0FF306B
:100B2C0000F00BF9064A7B681360002300E00123F8
:100B3C0018460837BD4680BD000000200800002084
:100B4C000400002080B400AF054B1B781A46054BFF
:100B5C001B681344034A136000BFBD4680BC70473A
:100B6C00080000202800002080B400AF024B1B6856
:100B7C001846BD4680BC70472800002080B584B064
:100B8C0000AF7860FFF7F0FFB8607B68FB60FB6834
:100B9C00B3F1FF3F05D00A4B1B781A46FB68134490
:100BAC00FB6000BFFFF7E0FF0246BB68D31AFA6890
:100BBC009A42F7D800BF00BF1037BD4680BD00BFBA
:100BCC000800002080B485B000AF78607B6803F02B
:100BDC000703FB600C4BDB68BB60BA684FF6FF0386
:100BEC001340BB60FB681A02BB68134343F0BF633E
:100BFC0043F40033BB60044ABB68D36000BF1437B6
:100C0C00BD4680BC704700BF00ED00E080B400AF73
:100C1C00044BDB681B0A03F007031846BD4680BC77
:100C2C00704700BF00ED00E080B483B000AF034616
:100C3C003960FB7197F90730002B0ADB3B68DAB29D
:100C4C000C4997F907301201D2B20B4483F80023F8
:100C5C000AE03B68DAB20849FB7903F00F03043B66
:100C6C001201D2B20B441A7600BF0C37BD4680BCC1
:100C7C00704700BF00E100E000ED00E080B489B0F7
:100C8C0000AFF860B9607A60FB6803F00703FB61A2
:100C9C00FB69C3F10703042B28BF0423BB61FB6969
:100CAC000433062B02D9FB69033B00E000237B6174
:100CBC004FF0FF32BB6902FA03F3DA43BB681A4008
:100CCC007B699A404FF0FF317B6901FA03F3D943FA
:100CDC007B680B40134318462437BD4680BC7047D5
:100CEC0080B582B000AF78607B68013BB3F1807F48
:100CFC0001D301230FE00A4A7B68013B53600F21AB
:100D0C004FF0FF30FFF790FF054B00229A60044B29
:100D1C0007221A60002318460837BD4680BD00BF65
:100D2C0010E000E080B582B000AF78607868FFF723
:100D3C0049FF00BF0837BD4680BD80B586B000AF07
:100D4C000346B9607A60FB7300237B61FFF75EFF9B
:100D5C0078617A68B9687869FFF790FF024697F96D
:100D6C000F3011461846FFF75FFF00BF1837BD461E
:100D7C0080BD80B582B000AF78607868FFF7B0FFB7
:100D8C00034618460837BD4680BD000080B48BB0C2
:100D9C0000AF7860396000237B6200233B6248E13E
:100DAC0001227B6A02FA03F3FB613B681B68FA6958
:100DBC001340BB61BA69FB699A4240F037813B68CA
:100DCC005B68A34A93425ED0A14A934275D8A14A6C
:100DDC00934258D09F4A93426FD89F4A934252D025
:100DEC009D4A934269D89D4A93424CD09B4A934268
:100DFC0063D89B4A934246D0994A93425DD8122BB2
:100E0C002AD8122B59D801A252F823F0930E0008BD
:100E1C006D0E00087F0E0008C10E0008C70E0008FA
:100E2C00C70E0008C70E0008C70E0008C70E000842
:100E3C00C70E0008C70E0008C70E0008C70E000832
:100E4C00C70E0008C70E0008C70E0008C70E000822
:100E5C00750E0008890E0008824A934213D02CE0CC
:100E6C003B68DB683B6229E03B68DB6804333B6230
:100E7C0024E03B68DB6808333B621FE03B68DB68BF
:100E8C000C333B621AE03B689B68002B02D10423B5
:100E9C003B6213E03B689B68012B05D108233B6246
:100EAC007B68FA691A6109E008233B627B68FA697E
:100EBC005A6103E000233B6200E000BFBB69FF2BDB
:100ECC0001D87B6801E07B6804337B61BB69FF2B35
:100EDC0002D87B6A9B0002E07B6A083B9B003B616B
:100EEC007B691A680F213B6901FA03F3DB431A4053
:100EFC00396A3B6901FA03F31A437B691A603B6850
:100F0C005B6803F08053002B00F09080564B9B697C
:100F1C00554A43F001039361534B9B6903F0010362
:100F2C00BB60BB68514A7B6A9B08023352F8233082
:100F3C00FB607B6A03F003039B000F2202FA03F3AE
:100F4C00DB43FA681340FB607B68494A93420DD03F
:100F5C007B68484A934207D07B68474A934201D149
:100F6C00022304E0032302E0012300E000237A6A59
:100F7C0002F0030292009340FA681343FB603B4972
:100F8C007B6A9B080233FA6841F823203B685B6854
:100F9C0003F48033002B06D0384B1A683749BB69F1
:100FAC0013430B6006E0354B1A68BB69DB433349CE
:100FBC0013400B603B685B6803F40033002B06D0D6
:100FCC002E4B5A682D49BB6913434B6006E02B4BE3
:100FDC005A68BB69DB43294913404B603B685B682B
:100FEC0003F48013002B06D0244B9A682349BB6969
:100FFC0013438B6006E0214B9A68BB69DB431F49A6
:10100C0013408B603B685B6803F40013002B06D025
:10101C001A4BDA681949BB691343CB6006E0174BCE
:10102C00DA68BB69DB4315491340CB607B6A01333B
:10103C007B623B681A687B6A22FA03F3002B7FF40D
:10104C00AFAE00BF00BF2C37BD4680BC704700BFA1
:10105C00000032100000311000002210000021109E
:10106C00000012100000111000100240000001409E
:10107C0000080140000C0140001001400004014038
:10108C0080B483B000AF78600B467B8013467B70D6
:10109C007B78002B03D07A887B681A6103E07B880D
:1010AC001A047B681A6100BF0C37BD4680BC7047C0
:1010BC0080B485B000AF78600B467B807B68DB68C2
:1010CC00FB607A88FB6813401A04FB68D9437B8861
:1010DC000B401A437B681A6100BF1437BD4680BCB5
:1010EC007047000080B586B000AF78607B68002B3D
:1010FC0001D101236CE27B681B6803F00103002B18
:10110C0000F08780924B5B6803F00C03042B0CD02F
:10111C008F4B5B6803F00C03082B12D18C4B5B6874
:10112C0003F48033B3F5803F0BD1894B1B6803F478
:10113C000033002B6CD07B685B68002B68D10123DB
:10114C0046E27B685B68B3F5803F06D1804B1B6839
:10115C007F4A43F4803313602EE07B685B68002B7E
:10116C000CD17B4B1B687A4A23F480331360784B89
:10117C001B68774A23F4802313601DE07B685B684F
:10118C00B3F5A02F0CD1724B1B68714A43F480232A
:10119C0013606F4B1B686E4A43F4803313600BE093
:1011AC006B4B1B686A4A23F480331360684B1B68D3
:1011BC00674A23F4802313607B685B68002B13D091
:1011CC00FFF7D2FC386108E0FFF7CEFC02463B6922
:1011DC00D31A642B01D90323FAE15D4B1B6803F48A
:1011EC000033002BF0D014E0FFF7BEFC386108E0B0
:1011FC00FFF7BAFC02463B69D31A642B01D90323CF
:10120C00E6E1534B1B6803F40033002BF0D100E0F4
:10121C0000BF7B681B6803F00203002B63D04C4BB0
:10122C005B6803F00C03002B0BD0494B5B6803F09D
:10123C000C03082B1CD1464B5B6803F48033002B4A
:10124C0016D1434B1B6803F00203002B05D07B68BF
:10125C001B69012B01D00123BAE13D4B1B6823F024
:10126C00F8027B685B69DB00394913430B603AE099
:10127C007B681B69002B20D0364B01221A60FFF7CC
:10128C0073FC386108E0FFF76FFC02463B69D31A28
:10129C00022B01D903239BE12D4B1B6803F00203A6
:1012AC00002BF0D02A4B1B6823F0F8027B685B699B
:1012BC00DB00274913430B6015E0264B00221A6014
:1012CC00FFF752FC386108E0FFF74EFC02463B6921
:1012DC00D31A022B01D903237AE11D4B1B6803F0AF
:1012EC000203002BF0D17B681B6803F00803002B72
:1012FC003AD07B689B69002B19D0174B01221A60DE
:10130C00FFF732FC386108E0FFF72EFC02463B6920
:10131C00D31A022B01D903235AE10D4B5B6A03F05C
:10132C000203002BF0D0012000F0A6FA1CE00A4BBF
:10133C0000221A60FFF718FC38610FE0FFF714FC6D
:10134C0002463B69D31A022B08D9032340E100BFA4
:10135C000010024000004242800442429E4B5B6AF5
:10136C0003F00203002BE9D17B681B6803F0040334
:10137C00002B00F0A6800023FB75974BDB6903F074
:10138C008053002B0DD1944BDB69934A43F080536F
:10139C00D361914BDB6903F08053BB60BB680123C5
:1013AC00FB758E4B1B6803F48073002B18D18B4B91
:1013BC001B688A4A43F480731360FFF7D5FB3861CE
:1013CC0008E0FFF7D1FB02463B69D31A642B01D925
:1013DC000323FDE0814B1B6803F48073002BF0D0DA
:1013EC007B68DB68012B06D17B4B1B6A7A4A43F086
:1013FC00010313622DE07B68DB68002B0CD1764B6C
:10140C001B6A754A23F001031362734B1B6A724A01
:10141C0023F0040313621CE07B68DB68052B0CD102
:10142C006D4B1B6A6C4A43F0040313626A4B1B6AD4
:10143C00694A43F0010313620BE0674B1B6A664A6F
:10144C0023F001031362644B1B6A634A23F0040309
:10145C0013627B68DB68002B15D0FFF785FB3861C6
:10146C000AE0FFF781FB02463B69D31A41F288324E
:10147C00934201D90323ABE0574B1B6A03F00203E1
:10148C00002BEED014E0FFF76FFB38610AE0FFF79A
:10149C006BFB02463B69D31A41F28832934201D965
:1014AC00032395E04C4B1B6A03F00203002BEED197
:1014BC00FB7D012B05D1484BDB69474A23F0805358
:1014CC00D3617B68DB69002B00F08180424B5B6849
:1014DC0003F00C03082B61D07B68DB69022B46D12F
:1014EC003F4B00221A60FFF73FFB386108E0FFF723
:1014FC003BFB02463B69D31A022B01D9032367E05D
:10150C00354B1B6803F00073002BF0D17B681B6A12
:10151C00B3F5803F08D1304B5B6823F400327B6815
:10152C009B682D4913434B602B4B5B6823F474125F
:10153C007B68196A7B685B6A0B43274913434B60D2
:10154C00274B01221A60FFF70FFB386108E0FFF709
:10155C000BFB02463B69D31A022B01D9032337E05C
:10156C001D4B1B6803F00073002BF0D02FE01C4BBD
:10157C0000221A60FFF7F8FA386108E0FFF7F4FA76
:10158C0002463B69D31A022B01D9032320E0124BEC
:10159C001B6803F00073002BF0D118E07B68DB694B
:1015AC00012B01D1012313E00B4B5B68FB60FB6843
:1015BC0003F480327B681B6A9A4206D1FB6803F401
:1015CC0070127B685B6A9A4201D0012300E0002311
:1015DC0018461837BD4680BD001002400070004010
:1015EC006000424280B584B000AF786039607B689F
:1015FC00002B01D10123D0E06A4B1B6803F00703D9
:10160C003A689A4210D9674B1B6823F00702654968
:10161C003B6813430B60634B1B6803F007033A688A
:10162C009A4201D00123B8E07B681B6803F00203E7
:10163C00002B20D07B681B6803F00403002B05D023
:10164C00594B5B68584A43F4E06353607B681B68F2
:10165C0003F00803002B05D0534B5B68524A43F44C
:10166C0060535360504B5B6823F0F0027B689B68BF
:10167C004D4913434B607B681B6803F00103002B3F
:10168C0040D07B685B68012B07D1474B1B6803F488
:10169C000033002B15D101237FE07B685B68022BA4
:1016AC0007D1414B1B6803F00073002B09D10123B8
:1016BC0073E03D4B1B6803F00203002B01D10123A7
:1016CC006BE0394B5B6823F003027B685B6836493F
:1016DC0013434B60FFF748FAF8600AE0FFF744FA4F
:1016EC000246FB68D31A41F28832934201D9032394
:1016FC0053E02D4B5B6803F00C027B685B689B002E
:10170C009A42EBD1274B1B6803F007033A689A42C5
:10171C0010D2244B1B6823F0070222493B68134369
:10172C000B60204B1B6803F007033A689A4201D008
:10173C00012332E07B681B6803F00403002B08D004
:10174C00194B5B6823F4E0627B68DB681649134332
:10175C004B607B681B6803F00803002B09D0124B0D
:10176C005B6823F460527B681B69DB000E491343F2
:10177C004B6000F021F802460B4B5B681B0903F031
:10178C000F030A49CB5C22FA03F3094A1360094B95
:10179C001B681846FFF7A6F9002318461037BD46FC
:1017AC0080BD00BF0020024000100240401900081C
:1017BC00000000200400002090B48AB000AF2A4B37
:1017CC003C1D0FCB84E80F0040F201233B8000232B
:1017DC00FB610023BB6100237B6200237B61002340
:1017EC003B62224B5B68FB61FB6903F00C03042B2F
:1017FC0002D0082B03D02DE01D4B3B622DE0FB6982
:10180C009B0C03F00F0307F12802134413F8243C3C
:10181C007B61FB6903F48033002B13D0134B5B68A3
:10182C005B0C03F0010307F12802134413F8283C66
:10183C00BB617B690E4A02FB03F2BB69B2FBF3F39B
:10184C007B6204E07B690B4A02FB03F37B627B6ADD
:10185C003B6202E0064B3B6200BF3B6A18462837EE
:10186C00BD4690BC704700BF301900080010024004
:10187C0000127A0000093D0080B485B000AF78609A
:10188C000A4B1B680A4AA2FB03235B0A7A6802FB19
:10189C0003F3FB6000BFFB685A1EFA60002BF9D102
:1018AC0000BF00BF1437BD4680BC7047000000204D
:1018BC00D34D621070B500260C4D0D4C641BA4105A
:1018CC00A64209D100F022F800260A4D0A4C641BEE
:1018DC00A410A64205D170BD55F8043B98470136BB
:1018EC00EEE755F8043B98470136F2E7501900082B
:1018FC0050190008501900085419000803460244F6
:10190C00934200D1704703F8011BF9E7F8B500BF0B
:10191C00F8BC08BC9E467047F8B500BFF8BC08BCC4
:04192C009E4670471C
:1019300002030405060708090A0B0C0D0E0F101010
:10194000000000000000000001020304060708096F
:041950003101000859
:041954000D01000879
:0C1958000024F40010000000010000005A
:0400000508000A796C
:00000001FF
